:020000040001F9
:10C00000683E002015C101002FC1010069C4010074
:10C010000000000000000000000000000000000020
:10C0200000000000000000000000000033C101001B
:10C03000000000000000000035C1010037C1010010
:10C0400039C1010039C1010055C8010039C10100E1
:10C0500039C101000000000061C3010039C10100C5
:10C0600039C1010039C1010039C1010039C10100E4
:10C0700039C1010039C1010039C1010039C10100D4
:10C0800059C90100F9C4010039C1010039C10100D9
:10C090004FC7010039C1010059C7010039C1010072
:10C0A00039C1010039C1010000000000000000009A
:10C0B0000000000000000000000000000000000080
:10C0C0000348854600F004F90048004761E7010095
:10C0D000683E0020401E00BF00BF00BF00BF00BF81
:10C0E00000BF00BF00BF00BF00BF00BF00BFF1D155
:10C0F00070470000401E00BF00BF00BF00BF00BF70
:10C1000000BF00BF00BF00BF00BF00BF00BFF1D134
:10C11000704700000321094802680A43026008488A
:10C1200002680A4302600748804707480047FEE765
:10C13000FEE7FEE7FEE7FEE7FEE70000240500401D
:10C140005405004001C80100C1C0010030B50B46D4
:10C15000014600202022012409E00D46D5409D42E1
:10C1600005D31D469540491B254695404019154667
:10C17000521E002DF1DC30BD70B50024254600288C
:10C1800001DA01244042002901DA01254942FFF782
:10C19000DDFFAC4200D04042002C00D0494270BDCF
:10C1A000F0B51FB40646002082B005464024019138
:10C1B00000901BE0019922460F46304600F076F8C9
:10C1C000049A059B801A994110D3104619462246BD
:10C1D00000F05CF8361A8F410197224601200021B9
:10C1E000009F00F053F838184D4100902046641E1F
:10C1F0000028DFDC019B00982946324607B0F0BDDD
:10C2000010B5431A934209D28318881803E0401EE0
:10C2100001785B1E1970521EF9D210BD03460B4304
:10C220009B0703D009E008C9121F08C0042AFAD2EC
:10C2300003E00B780370401C491C521EF9D210BD5C
:10C24000D2B201E00270401C491EFBD270470022AE
:10C25000F6E710B513460A4604461946FFF7F0FF05
:10C26000204610BD421C0178401C0029FBD1801AD9
:10C27000704730B504460020034600E05B1C934243
:10C2800003D2E05CCD5C401BF8D030BD10B5202A55
:10C2900004DB0146203A9140002010BD914020234C
:10C2A0009C1A0346E3401943904010BD10B5202A64
:10C2B00004DB0846203AD040002110BD0B46D34095
:10C2C000D0402024A21A91400843194610BD000016
:10C2D000064C0125064E05E0E36807CC2B430C3CD9
:10C2E00098471034B442F7D3FFF7EEFEA8110200CE
:10C2F000C811020070B58C180578401C6B075B0FE5
:10C3000001D10378401C2A1106D10278401C03E0B9
:10C3100006780E70401C491C5B1EF9D12B0705D412
:10C320000023521E0DD40B70491CFAE70378401C01
:10C33000CB1A921C03E01D780D70491C5B1C521E29
:10C34000F9D5A142D8D3002070BD10B5002304E078
:10C35000CC5C20185B1CC0B2DBB29342F8D310BD9A
:10C36000F8B50024FF25013501262746009428460C
:10C3700002F0DCFE002808D034484068304204D087
:10C38000334800212818344301602D1D76007F1C9E
:10C39000ADB2042FEBD3FF207D3002F0C7FE0028A2
:10C3A00007D02C4800210160400704432A48006957
:10C3B00000902A4F200712D00126002526420AD0DD
:10C3C0002748AA00111808690969C004C00E89032A
:10C3D000BA58890F904776006D1C042DEED3002CBF
:10C3E00030DA00241D4E0021301940304156491CDE
:10C3F00025D00778BD06AD0E284601F039FC800037
:10C400003658002E1BD0BF090121A940154AA800AB
:10C4100080180068009A8003800F114202D0022821
:10C4200002D00CE003280AD1032F05D102280AD03C
:10C430000221284602F06AFE39462846B047641CAD
:10C44000042CCFD3F8BD0321F3E7000000630040C4
:10C45000006000407C61004000050050A4300020D6
:10C460000065004000070050EFF30880826902A1D8
:10C47000002000F099F8FEE748617264204661757B
:10C480006C7420617420616464726573733A203047
:10C4900078253038780D0A008307FF22DB0E9A409A
:10C4A0008907090E994000280BDA0007000F0838A9
:10C4B000830808489B001818C36993430B43C36162
:10C4C0007047830804489B001B1818689043084372
:10C4D0001860704700ED00E000E400E0BFF34F8F0C
:10C4E00004490348C860BFF34F8F00BFFDE7000059
:10C4F0000400FA0500ED00E010B5064900200860D0
:10C5000048608860C860034940390860486004F0AA
:10C5100039F910BD40110140F7B5182148432149B0
:10C5200016464418E16A8807800F02280BD0A06ADB
:10C53000626A801A401E01D5226A1018864202DD06
:10C5400089072DD00646002E2AD00027A06A616AEE
:10C55000451A6D1E01D5206A4519616A206A411A83
:10C56000A94201DC616A451AB54200DB3546616AC1
:10C57000E0692A4640180199FFF742FE01987F19A9
:10C5800040190190606A761B40196062606A216AF6
:10C59000884201D100206062002ED7D13846FEBD0E
:10C5A0000020FEBD502900200FB408B504A9009159
:10C5B0006A46039900F004F801B008BC04B01847BB
:10C5C000F7B598B007A80290402000250495039085
:10C5D00018980C46059506902178641C002974D0A3
:10C5E000252907D002A800F09FFA05980028F3DA61
:10C5F0001BB0F0BD00210123022704220826207869
:10C60000232817D02B2813D02D280DD030280DD05B
:10C61000002220780346303B0A2B0ED20A235A43CD
:10C620001218303A641CF4E7194304E0394302E07D
:10C63000114300E03143641CE1E70023C7B22E2F11
:10C640000AD1641C20780746303F0A2F04D20A27FB
:10C650007B431B18303BF4E76C280DD068280BD0C7
:10C66000702852D00BDC25285AD058282ED06328A9
:10C670000CD0642858D110E02078641CECE77328B3
:10C6800032D0752817D078284ED11FE01A981A9A00
:10C690000068011D1160017843E01A981A9F006834
:10C6A000061D3E6000680191009201460A2202A820
:10C6B00000F066F938E01A981A9F0068061D3E607F
:10C6C0000068009201910A2209E02FE01A981A9F4F
:10C6D0000068061D3E60006800920191102201462C
:10C6E00002A800F0AFF91FE01A981A9A0068011D1D
:10C6F000116006683178761C002915D002A800F078
:10C7000013FA05980028F5DA0EE01A981A9A0068CC
:10C710000823011D11600168102200960195DFE7D2
:10C72000252102A800F000FA641C5EE705980028A5
:10C7300000DC5DE70498002804D0024607A9189899
:10C74000FFF7EAFE049905984018059050E710B5E8
:10C7500003F0AEFF10BD000010B508484068002887
:10C7600008D08047002804D0FF21054A413100F05D
:10C770002DFC10BD01F052FE10BD00003829002034
:10C780004011020077B581B000246B460E46254665
:10C790001C701A7B2046FFF7D8FD6B4618700122EB
:10C7A00003A91878FFF7D1FD6B461870012201A983
:10C7B0001878FFF7CAFD6B461870AA2000F0B4FE87
:10C7C000552000F0B1FE6B46187900F0ADFE6B46C7
:10C7D000187800F0A9FE6B46187B00F0A5FE04E077
:10C7E000305D00F0A1FE641CE4B26846007B844228
:10C7F000F6D302480570C5707FBD00004C2F0020A5
:10C8000010B501F05BFE002805D00E490C484860C9
:10C81000C8130D4988610D48018CC9B201290ED198
:10C82000818C09070BD1018D0906090F042906D156
:10C83000808D0006000F02D105490120886010BDDF
:10C84000DFFF07C000050040006C0040C00F00F093
:10C8500000060040F0B53C4D012185B04902284654
:10C8600002F073FC01270026384C002823D0FF215A
:10C870002531284602F064FC00281CD0FF2025301A
:10C880002E508120324980008860607D002800D1D0
:10C890006F600221684601702E49086808600390A5
:10C8A000E17C68460172E0680190E67406CC684657
:10C8B000083C90471DE00421284602F046FC002871
:10C8C00017D0FF210931284602F03AFC002810D089
:10C8D00003F09CFCE07C217D88420AD1607D002829
:10C8E00000D16F6081201A4980008860207D03F0AC
:10C8F000A3FCFF211D31284602F022FC00280DD0A8
:10C90000A07C218A884202D903F0CEFF06E0FF21F5
:10C910001D316E50002801D003F0DCFFFF214531AE
:10C92000284602F00DFC00280CD0FF2045302E5088
:10C93000607D002800D02F60E07C002802D0207DA0
:10C9400003F07AFC05B0F0BD00200040C4310020A7
:10C95000002300408024004006484068C107C90FFA
:10C960000020002904D004490860044840680047BA
:10C97000704700000003014000010140D028002062
:10C98000FFB583B00E4670420D9F0C9C00900029AD
:10C9900000DB0846012502E0FFF7D8FB6D1C059976
:10C9A0008842F9D20698A84200D90546002C04D046
:10C9B000002E01DB780700D5641EB80702D5069863
:10C9C000002811D0F8070FD1002C0DD02046641E8E
:10C9D000A84209D92021039800F0A6F80398C0685E
:10C9E0000028F1DA07B0F0BD002E02DA2D21009EFA
:10C9F00002E0780707D52B21039800F095F80398FB
:10CA0000C0680028EEDBB807800F022811D1069815
:10CA100000280ED1002C0CD02046641EA84208D954
:10CA20003021039800F080F80398C0680028F1DAFC
:10CA3000D8E7019700943146069B059A039800F0C9
:10CA400001F8CFE7FFB581B001271E463D460A9C9D
:10CA5000029802E0FFF77AFB6D1C03998842F9D235
:10CA6000AE4200D935460B98C0071CD1002C1AD015
:10CA70000B98800701D5002E02D0202000900BE0FB
:10CA80003020FBE70099019800F04EF80198C0684B
:10CA9000002845DB002C06D02046641EA842F1D8B1
:10CAA00001E00398474339460298FFF74FFB0146E0
:10CAB0000398814201D3012000E000203146761E18
:10CAC000012901DD012100E000210843E9D1154ED3
:10CAD00039460298FFF73AFB0146029A7943511A08
:10CAE0000291315C019800F01FF80198C06800289D
:10CAF00005DB38460399FFF729FB0700E8D10B98BF
:10CB0000C0070DD0002C0BD02046641EA84207D9C8
:10CB10002021019800F008F80198C0680028F1DA97
:10CB200005B0F0BDA810020010B504468068636827
:10CB3000421C934205DB23681954A260E068401C44
:10CB4000E060A2686068824209D121682069FFF72D
:10CB5000E3FCA168884203D00020C043E06010BD20
:10CB60000020A06010BD30B47446641E2578641C9B
:10CB7000AB4200D21D46635D5B00E31830BC184732
:10CB800002E008C8121F08C1002AFAD17047704796
:10CB9000002001E001C1121F002AFBD170470000F4
:10CBA00010B507480121C1604160064900200860B6
:10CBB000022002F08FFA032002F08CFA10BD000070
:10CBC0000020004000250040F7B584B000251688FD
:10CBD00007461580406B1446002813D0037805984B
:10CBE000032E51D30221017021881122491C89B2E0
:10CBF000218042542188491C89B2218043542088D5
:10CC0000401C2080386B00281DD0054620880599DF
:10CC100002461232B24237D811220A54208810221A
:10CC2000401C80B220800A542088401C20800F20A5
:10CC30002A5C2388401ECA54228840B2521C22809B
:10CC40000028F5DA0025384620300290807B002845
:10CC500006D033462246059901F07CFC050014D12C
:10CC60000298407B002806D032462146059800F005
:10CC700019FE050009D1B878002823D0059886460A
:10CC80002088001DB04202D90C2007B0F0BD6846D4
:10CC900079DF0028F9D1218803207246505420887A
:10CCA0001921401C80B22080115420887146401CFC
:10CCB00080B2208041186846008804F08DF82188F1
:10CCC00040182080F878002817D0218803230A46CE
:10CCD000FB56C91C0598B142D6D80221815421883F
:10CCE0000122491C89B2218042542188491C89B201
:10CCF000218043542088401C20807868002817D069
:10CD000021880023C3560A46C91C0598B142BBD8E6
:10CD10000221815421880A22491C89B2218042546F
:10CD20002188491C89B2218043542088401C2080DE
:10CD3000388900280AD0009438460196062202213C
:10CD40000830059B04F0C1F805009ED1388A002800
:10CD50000AD0009438460196072203211030059B23
:10CD600004F0B3F8050090D1388B00280AD0009465
:10CD700038460196152214211830059B04F0A5F8B9
:10CD8000050082D1386A002806D03346224605992C
:10CD900001F020F90500D8D1786A002806D0334682
:10CDA0002246059901F006FE0500CED10298007BCF
:10CDB000002807D0334622463846059903F05AFA30
:10CDC0000500C2D13878002807D0334622463846BD
:10CDD000059901F023FE0500B7D1284655E700006C
:10CDE00010B5A6B01C211FA8FFF731FA38210EA8F4
:10CDF000FFF72DFA022008A90876012088761FA8DF
:10CE000000F026F8044602460DA10020FFF7CCFBF7
:10CE1000592010A908861FA81E908C8638216846C4
:10CE2000FFF715FA00206946087088700620C87060
:10CE30001CA809900EA9684600F08EFC26B010BD13
:10CE40006D616D75206C656E2025640D0A00000013
:10CE500070B504460220207015206070A01C1022BE
:10CE60000A49FFF7CDF9094D21461231288A03F00E
:10CE7000B8FF1230C6B2A119688A03F0B2FF801958
:10CE8000C0B2A97D2154401CC0B270BD2C36002018
:10CE900070B504460FCC114D0FC5A0882880E088DE
:10CEA00068802089A880A07AE8802846214608303A
:10CEB00007220B310646103C103DFFF7A1F9606ACE
:10CEC000286228460321203001710021AE620173DF
:10CED0002963228AAA86E986017670BD2C36002055
:10CEE0000C4902680A604068486000208860C86099
:10CEF00008614861087A01221043FD22104008723F
:10CF00001920C0010882372040014882022088820F
:10CF10007047000050300020054886DF002805D00B
:10CF2000034908394968002900D0084770470000C4
:10CF30005830002070B50024064D06E06968E00016
:10CF4000085C012101F0F8FD641C28788442F5D3C7
:10CF5000002070BDDC280020F8B515460C460646BA
:10CF6000052A01D20720F8BD01F0BCFE002803D13C
:10CF700001F08EFE0028F6D1104900204E600C70A2
:10CF8000C8608D6008610E4D0DE0E0006968801991
:10CF9000009181786A46517000780A4A694601F02A
:10CFA0001BFE0028DFD12046641EE4B20028ECD12D
:10CFB000054A0021024800F087F9F8BDDC2800206E
:10CFC0008010020055E3010061E1010008B572B66E
:10CFD0000B460092024603A10020FFF7E5FA00BFCE
:10CFE000FDE700004153534552540D0A436F6465F9
:10CFF0003A203078253038780D0A4C696E653A2031
:10D0000025640D0A46696C653A2025730D0A0000F7
:10D0100010B58268C368934203D001F0F1F8002094
:10D0200010BD052010BD002906D0002A02D0531ED5
:10D03000134203D0092070470E207047016083809F
:10D0400000218160C1600846704710B58268C368DE
:10D050009A1A83889A4203D801F0DCF8002010BDA8
:10D06000042010BD70B50024002903D08A070025D4
:10D07000002A01D0072070BD094A0B46516010708C
:10D0800018215570414318469560FFF7E0F801F00C
:10D0900029FE002802D101F0FBFD0446204670BDA8
:10D0A0002829002038B50C46A2680C235A43064BA9
:10D0B00009789D58054A126A0092024620460830B7
:10D0C0002369A84738BD0000B8310020AC280020F3
:10D0D00010B5064914230A785A435118091DFFF761
:10D0E000E1FF042003F05CF910BD0000EC300020EB
:10D0F00010B50F4C2146203104280FD005280DD043
:10D1000007280AD1487D002807D0002048754FDF46
:10D110000AE0216B002900D0884710BD087D002857
:10D12000FBD0002001F008FB0028F2D110BD000068
:10D13000CC29002070B50F4B05241D785E78AE42D7
:10D1400015D01D781C789E88B44201DA641C00E07A
:10D1500000241C705C88DE686C43A41904609B6822
:10D16000E800C418A4880C801858002410602046D9
:10D1700070BD000010290020F7B53B4C82B06088DC
:10D180000F4681426ED80020694608703849374EF4
:10D190004868C005C00D18D0103840B2002807DA22
:10D1A0000207120F083A920892005118C96904E068
:10D1B0008108304A8900891809688007C00EC1407B
:10D1C0000806850F012D01D10AE00425684636DFE7
:10D1D00002280CD0002803D0274A6621FFF7F6FE6C
:10D1E00022786078A188884203DA401C02E072B697
:10D1F000F6E70020C0B2904207D066786078884297
:10D2000001DA401C00E000206070012D0BD062B6F6
:10D210006846007837DF022805D0002803D0164A78
:10D220006E21FFF7D3FE1148864219D0A068F500A1
:10D2300004994151029900290CD0002F0AD060882E
:10D240003A464643E0683018FEF7DAFFA06828182F
:10D25000878002E0002128188180002005B0F0BD01
:10D260000420FBE70920F9E710290020FFFF000058
:10D2700000ED00E000E400E0FC1002000EB504E068
:10D2800068468188029A0098904702AA01A96846D8
:10D29000FFF750FF0028F3D00EBD000030B5CB00E3
:10D2A00008339DB293070024002B01D0072030BD26
:10D2B000044B9A605219DA605C701C705880998037
:10D2C000002030BD10290020094B9B68002B07D09F
:10D2D000002A07D0002805D00068037C002B03D06B
:10D2E0000820704707207047417442610020704752
:10D2F000F0280020FFB59007002581B014460E46A7
:10D30000002832D11B4F002C31D002F01FFF0498AF
:10D3100078610320387033461821224600204B43A1
:10D32000BC601834C10089180D704D708E704C604F
:10D330001C19401C0328F5DBFD607D7001240E489C
:10D34000BD702405046003211420FFF7A5F80B48E5
:10D3500004600B4C0198A06003211120FFF79CF89A
:10D3600060683861002005B0F0BD0720FBE7BD60B4
:10D37000FBE70000F028002080E200E000E100E090
:10D3800000150140FEB50D461B4917468968044645
:10D3900000292AD0002C28D0052D01D20720FEBD5F
:10D3A0006069002821D0607C012820D0002603F08D
:10D3B0004FFDC0001049019089684018694603F08C
:10D3C00071FD002815D0012101700C4944604968A5
:10D3D0000830E2C008490198896841186846007819
:10D3E000487003F0A7F90020FEBD0820FEBD2E46C0
:10D3F000DDE70420FEBD0000F028002000150140FC
:10D40000F8B5134D0446A96800291CD0002C1AD089
:10D410006069002817D00026267403F019FDC700A4
:10D42000A8686946381803F03DFD00280DD0022198
:10D4300001704460A868391868460078487003F0A5
:10D4400079F93046F8BD0820F8BD0420F8BD000089
:10D45000F028002010B5044609488168C268808819
:10D46000511A814207D10121064801F09BFC002896
:10D4700001D0052010BD21460148FFF7C9FD10BDB0
:10D48000FC3100202229002070B50446224888B0D3
:10D490001E460D0042601CD0A888296882B21F4831
:10D4A000FFF7C1FD002815D1A889A96882B21B48E1
:10D4B0001030FFF7B8FD00280CD12022184968462B
:10D4C000FEF79EFEA06806902079002804D0012176
:10D4D00003E0072008B070BD00216846017506779B
:10D4E0006079002800D00E2069464875E0780290E7
:10D4F000A0780390207801906078009009496846F0
:10D5000001F0F8FB0028E5D101F0A6FC024801215A
:10D51000801C01F047FCDDE720290020FC310020C1
:10D52000881002004109020010B504460648012196
:10D530004470401C01F09CFC112803D12146034893
:10D54000FFF783FD10BD0000202900200C320020D1
:10D5500070B5FF21104891310161014628390A4612
:10D5600014323CCA28313CC124390A8A8282498A51
:10D57000C18259210183C3218176002141621B3080
:10D5800071DF002803D0054A0549FFF71FFD024857
:10D59000FFF77EFC70BD0000002F002040E9010075
:10D5A0002A05000010B502A10020FEF7FDFF10BD06
:10D5B000626561636F6E5F6576745F68616E646CEF
:10D5C000650D0A0070B50025154E044600281DD0D3
:10D5D0007D21C9004843C117420CC903FF231143F1
:10D5E000C003F5330022C01851415A000023FEF752
:10D5F000D7FD0546014600227068FFF7C3FE0028EC
:10D6000007D008A20B49FFF7E1FC02E07068FFF7C2
:10D61000F7FE2B46224608A10020FEF7C5FF70BD8D
:10D62000D80F02002E2E5C2E2E5C2E2E5C6D6169B2
:10D630006E2E63006C050000626561636F6E20737F
:10D6400063616E2074696D657220737461727420F9
:10D650007365633A25642C7469636B733A25640DB2
:10D660000A00000010B50D49002008708C210C48FC
:10D67000FEF7EDFD0B4C0CA122780020FEF794FF85
:10D680002078411C2170052802D2FFF745FC10BD0F
:10D6900000F012F8002002F07BFD10BD00280020F1
:10D6A000582A00202C280020756E52656164436E54
:10D6B000743A25640D0A000010B50949002008706D
:10D6C00008484068FFF79CFE002803D006A2F3211B
:10D6D000FFF77CFC08A10020FEF766FF10BD0000EC
:10D6E0002C280020D80F02002E2E5C2E2E5C2E2E11
:10D6F0005C6D61696E2E630073746F70207363617B
:10D700006E20626561636F6E2074696D65720D0ACB
:10D710000000000010B5044604A10020FEF744FFFD
:10D7200008A20C492046FFF751FC10BD62656163F9
:10D730006F6E5F6572726F725F68616E646C650DAB
:10D740000A0000002E2E5C2E2E5C2E2E5C6D616970
:10D750006E2E6300F1040000F0B50C4693B01F215B
:10D760006A461180072600279180002809D0C178D9
:10D7700049070DD502A9FFF727FA002809D102AD04
:10D7800001E000251780002C0ED0E078002802D0A0
:10D79000304613B0F0BD01AA0AA92046FFF714FADB
:10D7A0000028F6D10AAA02E068460022878068466F
:10D7B0008088C3B268460088C1B2284672DFE8E7B5
:10D7C00070B5054601461C220E48FEF719FD0E4CA9
:10D7D000002626702968002906D00822201DFEF7A1
:10D7E0000FFD201D7ADF02E00748001D7BDF0028C7
:10D7F00007D1401E60806670044A00210448FFF78C
:10D8000063FD70BD883000204C280020ED0D020023
:10D8100028100200F8B5214C028800271E4DE68929
:10D82000102A15D01E49112A21D0122A2DD0502A93
:10D830001CD1C288801DB24218D1028B022A15D198
:10D84000C27E837E10021843C007C00F0CD112E0C5
:10D850008188698001461048082216310C30FEF795
:10D86000CFFC6F70002E01D100F008FCF8BD002045
:10D87000C04368806F700868FFF7C2FD0028F5D0CC
:10D88000A1690029F2D08847F8BD811D024808220D
:10D890000C30FEF7B5FCE7E74C280020883000206C
:10D8A000281002007CB5054608880C4609309042D5
:10D8B00001D90C207CBD684671DF0028FAD121888F
:10D8C0000820685420881B21401C80B220802954E5
:10D8D000208800A9401C80B2208040190622013116
:10D8E000FEF78EFC20886946801D80B22080097872
:10D8F000002900D0012129542088401C20800020CC
:10D900007CBD00007FB504460121684681714A490B
:10D9100081804A4A01A90120A0DF00287ED1228807
:10D9200025463C35002A09D044482B46801C0090EF
:10D930004348616800F0A4F900287BD12289002ABD
:10D940000AD03E482B460A3000903D48E168401F0F
:10D9500000F096F900286DD1228A002A0AD03748B3
:10D960002B461230009036486169001F00F088F99C
:10D9700000285FD1228B002A0AD030482B461A306B
:10D9800000902F48E169801E00F07AF9002851D1FB
:10D99000228C002A0AD029482B46223000902848A1
:10D9A000616AC01E00F06CF9002843D1228D002A64
:10D9B0000AD022482B462A3000902148E16A401EB6
:10D9C00000F05EF9002835D1216B00290ED002A8A5
:10D9D00002F032FE19482B463230009018480822D7
:10D9E00002A9801F00F04CF9002823D1606B0028A9
:10D9F0000BD012492B463A31009102790168104848
:10DA0000401C00F03DF9002814D1A16B002910D072
:10DA100002A802F0A3F80948423000E00AE00090B2
:10DA200007482B46072202A9273000F029F90028D1
:10DA300000D1002004B070BD0A180000602800204A
:10DA4000292A000010B50446FFF7E4FE204601F045
:10DA5000DFFE10BD1CB517A10020FEF7A5FD1A4C76
:10DA6000E078042810D019A10020FEF79DFD0120C8
:10DA7000694608716078012201A9FEF783FE6420DF
:10DA800001F01CF8FEF72AFD16A10020FEF78CFD20
:10DA90001B48002300903022211D184601F060FC35
:10DAA0000020694608716078012201A9FEF76AFE2C
:10DAB0001CBD0000626C655F7061726D5F636865BC
:10DAC000636B28290D0A00004C2F00205B45525241
:10DAD0004F525D205041524D5F494E56414C494492
:10DAE0000D0A00005B4552524F525D205354415481
:10DAF00055535F535543434553530D0A00000000EF
:10DB0000D9F3010070B504460D460846FEF7AAFB9E
:10DB10002080656070BD00001CB5002348221649B6
:10DB2000122002F071FC002803D0144A1449FFF7B8
:10DB30004DFA00200090694601900870684660DF49
:10DB4000002804D00E490D4AC91DFFF73FFA0D48C1
:10DB500002F050FC002804D00949084A0B31FFF7B5
:10DB600035FA094802F068FC002804D00449034A49
:10DB70000F31FFF72BFA1CBD742E002040E9010085
:10DB80004404000045DA0100290602007CB50C4679
:10DB900005460B46024616A10020FEF705FD012CA6
:10DBA00020D0002C1DD10B2D1BD10122022000946E
:10DBB00023461146019401F057FA002203200094F5
:10DBC00023461146019401F04FFA0D4904200860E4
:10DBD0000C480121016081600B484178002900D088
:10DBE00044707CBD0B2DFCD1FEF7DAFF7CBD00003C
:10DBF00050494E3D25642C61633D25640D0A0000AB
:10DC00000025004000200040002800200022D243D0
:10DC1000830004490428CA5002D308182030027730
:10DC200070470000A4300020F0B50025ED43002A25
:10DC300002D00023042601E0042308260B4C04E054
:10DC40009F00E7597F1C04D05B1CB342F8D32846E1
:10DC5000F0BD26185DB2203635709E00A151002A15
:10DC6000F5D1E11820310877F1E70000A430002059
:10DC7000024909182020085670470000A4300020EF
:10DC8000FFB58FB01E4615460F0004D1234A6D2103
:10DC90000020FFF79BF9002D04D1204A6E210020BF
:10DCA000FFF794F91C216846FEF7D1FA684601781F
:10DCB00002200143684601700024019403940494F7
:10DCC0000594012108A80694817068460F99018483
:10DCD00007943178017771784177807FF921084086
:10DCE000F721801C0840EF210840410849006846A0
:10DCF0008177142109A8FEF7AAFA08A8099007A8B5
:10DD00000A9068468585C485058605480D9709AA49
:10DD100069460088189BA2DF13B0F0BDB81002005E
:10DD200060280020F8B53E481422017851430C18B1
:10DD3000E0680C2148433A492769CC3140180589ED
:10DD400041890091241D466801F066FF014638466E
:10DD5000FEF7FCF9002932D000200099A2884D433B
:10DD60006188AE198918CD1900222E4900280A6150
:10DD700009D001F051FF6188884222D0B54202D11A
:10DD8000A08800281DD0A06802281AD001F044FF06
:10DD9000A188CA1901461046FEF7D8F9214C880817
:10DDA000E06001F039FF01462846FEF7CFF900296F
:10DDB00011D00020B5422FD000280ED02CE0012039
:10DDC000CBE701F029FF01463846FEF7BFF91549B8
:10DDD0004861032021E00120ECE7ADB2B7B201F0C9
:10DDE0001BFF01463846FEF7B1F9064601F014FF65
:10DDF00001462846FEF7AAF9864201D1781B09E0C0
:10DE000001F00AFF064601F007FF01462846FEF72B
:10DE10009DF9701A80082061022002F0C1FAF8BD55
:10DE2000EC300020AC28002010B5074814220178FF
:10DE3000514308180079042802D000F059F810BDA9
:10DE4000012002F0ADFA10BDEC30002010B50B48F7
:10DE50001422017851430818094AC18811620079D7
:10DE6000012806D0032801D0042801D1FFF75AFF6A
:10DE700010BD012002F094FA10BD0000EC3000202B
:10DE8000AC28002014225043054A0021801801715B
:10DE9000C18001220161C2604161018170470000BF
:10DEA000EC300020F8B5104C069E65780A2D19D08C
:10DEB00027787D190A2D00D30A3D14277D432D199B
:10DEC00028716A6103C92961E860EB802E8160785E
:10DED000401C607005480078002801D1FFF7B6FFAC
:10DEE0000020F8BD0420F8BDEC300020AC28002054
:10DEF00010B50D4C14212078484301190020091D4C
:10DF0000FFF7D0F82078FFF7BDFF6078401E607003
:10DF10002078401CC0B220700A2801D10020207057
:10DF2000002002F03DFA10BDEC300020F8B5234887
:10DF3000C16800293ED00E6821494C680769C07845
:10DF4000E11B0D022D0AED1C002814D101201D4AF1
:10DF5000000450601B4A403A50601B494000086072
:10DF60001A4908601A49012008602F20FEF7C2F8FC
:10DF700012490120C870B54200D23546E8190002A6
:10DF80000F4B000A403318600D4A5168001B091BF3
:10DF90000902090A0002000AC91C814209D9506815
:10DFA00018602F20FEF7A6F80120074940048039A9
:10DFB0000860F8BD02F0CAF8F8BD0000F0280020A3
:10DFC000001501404013014080E200E000E100E064
:10DFD00000100140F8B50646108814468446801D9E
:10DFE0000D46984201D90C20F8BD32880720062A38
:10DFF000FAD31927FF01184BBA4201D99A42F3D13B
:10E0000071880629F0D3B94201D99942ECD19A42DC
:10E0100003D0994201D08A42E6D8052160462954AE
:10E0200020881221401C80B2208029542088401C66
:10E0300080B220804119308802F0CEFE218840183D
:10E0400080B220804119708802F0C6FE21884018F5
:10E0500020800020F8BD0000FFFF000010B5FF2168
:10E0600002A2BB31FEF7B2FF10BD00002E2E5C2EC7
:10E070002E5C2E2E5C6D61696E2E6300F8B516481D
:10E0800000F00EFA144D00260C3D144C002807D069
:10E09000616900291CD001206A461070684616E0AC
:10E0A0002878002805D06169002911D068460670DB
:10E0B0000DE0687800280DD0A168094800220068AA
:10E0C000FFF760F9002803D0A169002900D0884734
:10E0D0002E70F8BD6168F0E75828002088300020D5
:10E0E0002810020010B5134C207900071FD4606976
:10E0F000401C6061E068002801D0042004E000F0CA
:10E1000001FA002803D0022002F084FA10BD206931
:10E11000002809D06068C10701D00320F4E701217D
:10E12000084360600020EFE7FFF77EFE10BD02F0BD
:10E1300065FA10BDAC28002010B5084841680A07F0
:10E1400008D48A0702D5012211434160022002F05F
:10E1500061FA10BD02F052FA10BD0000AC28002098
:10E16000F8B500260124154D23E06968F000471832
:10E17000387821462A698140114218D08A432A61A1
:10E1800000F07CFD3A782146EB6891401940034647
:10E19000934099420BD17978012901D0012100E007
:10E1A00000217B684140002B01D010469847761C27
:10E1B000F6B228788642D8D3F8BD0000DC280020CB
:10E1C00010B50E4900234A788C78A24212D0521C16
:10E1D000D2B24A70022A00D14B704A78074B9200A3
:10E1E00018339A580260086910180002000A086182
:10E1F000012010BD0360002010BD0000F0280020A9
:10E20000826883881A4003689A5C0A708168491C96
:10E2100081607047C26883881A4003689954C16856
:10E22000491CC1607047000010B5002803D01128B8
:10E2300002D0FEF74DFF10BD02480822416811438D
:10E24000416010BDAC28002010B51C4C2178204640
:10E250004068012906D0022929D0032912D10007DC
:10E2600017D513E0000711D4154814220178514343
:10E270000818C188A28B891A0904090CC18002D030
:10E2800002F080F910BDFFF733FE10BD00F086FBF1
:10E2900010BD6069401C606100F034F9002803D0B3
:10E2A000207802F07DF810BDFFF7BEFD10BD60784C
:10E2B000044980000858804710BD0000AC280020A9
:10E2C000EC3000204010020010B528DFFFF7ACFF53
:10E2D00010BD10B529DFFFF7A7FF10BD0EB5112047
:10E2E00069460872032219A102A87CDF002804D025
:10E2F000FF21174A5331FEF769FE0120400278DF03
:10E30000002804D0FF21124A5C31FEF75FFE002195
:10E31000FF20913000916A460191108043005380A4
:10E320009180D08068467ADF002804D0FF21084A17
:10E330006631FEF74BFE042077DF002804D0FF2172
:10E34000034A6931FEF742FE0EBD000068717A0093
:10E3500040E90100F8B50746104E0125BD40306880
:10E36000FFF74EF800280DD10D4C2069284207D147
:10E37000384600F083FC0028E06804D0284303E01E
:10E38000A8432061F8BDA843E0602069002228432B
:10E390002061A1683068FEF7F5FFF8BD801002002B
:10E3A000DC28002070B51B4C207900072ED41A48B9
:10E3B0001422017851430D182E6901F02DFC0146FD
:10E3C000E8882A89761E80188019FDF7BFFE21692A
:10E3D0000025002909D06169814206D1E5606068A5
:10E3E00001210843606000200AE000F08BF800285B
:10E3F00002D00220E56003E02069002803D003205A
:10E4000002F008F970BDFFF70FFD70BD02F0F6F8DD
:10E4100070BD0000AC280020EC300020F8B51E4C88
:10E420002078002837D02069002807D00026E0682F
:10E43000002805D00025002E04D013E00126F6E7C1
:10E440000125F8E7684651DF052806D0002806D0E8
:10E45000124A6D21FEF7BAFD04E0012602E02169AF
:10E4600000988847002D12D1608869460880A0680E
:10E4700061DF052806D0002806D0084A8421FEF76F
:10E48000A5FD04E0012502E0E168A0688847002EB0
:10E49000D8D0002DCFD0F8BD38290020401102007F
:10E4A000418805480288914204D34088814201D8BE
:10E4B0000120704700207047502800201048018C30
:10E4C000C9B2012917D1818C090714D1018D090620
:10E4D0000A0F03D1828D1206120F0ED0090F0129E7
:10E4E00003D1828D1206120F07D0032903D1808D2C
:10E4F0000006000F01D00020704701207047000087
:10E50000C00F00F070B50E481422017851430C186A
:10E51000256901F081FB0146E08822896D1E801883
:10E520004019FDF713FE07494A69824206D3824229
:10E5300002D10869002801D0002070BD012070BD03
:10E54000EC300020AC280020800701D0002070476C
:10E550000120704730B51588EC1C9C4201D90C2075
:10E5600030BD02244C5513881C255B1C9BB21380C4
:10E57000CD5413885B1C9BB21380012807D002285E
:10E5800007D0032807D0042807D0072030BD00207B
:10E5900004E0012002E0CC5401E00320C8541088BC
:10E5A000401C1080002030BDF8B52C49C8680A69AD
:10E5B0000C780F7989688646944600913EE0009970
:10E5C000E20055182A7836E0182353436968521C34
:10E5D000C918AB78D2B2934200D100220B78022B3B
:10E5E00002D0032B27D123E04E680346014603E007
:10E5F000B14204D00B46C96900291CD0F8E70029B4
:10E6000019D08B4208D1C069002805D1144F0126CA
:10E61000BE600026B44601270E68C969D961002989
:10E6200009D00B689B190B6005E00174C06900E01C
:10E6300000210028F9D169789142C5D12146641E94
:10E64000E4B20029BBD1054962460A61C8600F7176
:10E65000704501D00120F8BD0020F8BDF028002051
:10E6600000100140F8B5044631480026C168009109
:10E6700007784EE02E48F90080680D1843E0002C22
:10E6800002D02046E4691FE02878182141436A68D7
:10E69000401CC0B251182870AA78904200D12E7048
:10E6A0000A784868012A30D1027C002A2DD18A6874
:10E6B0004260CA6882600A69C260496981611C4916
:10E6C0000979002900D04660194943680A699C46C7
:10E6D000991A0902174B090A994202D282688918CD
:10E6E00007E06146511A09028268090A8A4202D982
:10E6F000511A016000E006604660012186600174E5
:10E70000C66102F01FF8002CB9D1287869788842D8
:10E71000BAD138467F1EFFB20028ABD10448C16889
:10E720000098814201D00120F8BD0020F8BD000012
:10E73000F0280020FFFF7F00074900220A7701220E
:10E7400020310A70487008464038816B41640349A3
:10E7500081643C3050DF7047EC29002040420F00BC
:10E7600088B073A10020FDF71FFF02F06BF8FFF7E0
:10E77000D3F9724A0A210820FEF790FD002804D040
:10E78000FF216FA2DB31FEF721FC714D04AB28465F
:10E79000083007C807C36F48009001200190674800
:10E7A0000323C8300290FF20013003906A4A694673
:10E7B00004A8FEF769FE002803D061A26749FEF7AE
:10E7C00005FC5E490120B031FEF74CFC002804D066
:10E7D000FF215BA2E331FEF7F9FB5E483222012103
:10E7E0000E30FEF7B9FB002804D0272154A20901FE
:10E7F000FEF7ECFBFEF79EFB002804D09D2150A203
:10E800008900FEF7E3FBFEF7CBF901F00BFA0028D5
:10E8100003D04BA25249FEF7D9FB00F079FD4D49D8
:10E8200000230422891D184600F098FC00233022A2
:10E830004C49012000F092FC4649002304220A3191
:10E84000022000F08BFC434C0A34E178A07801915F
:10E8500000906378227844A10020FDF7A5FEFFF721
:10E860003DFDFEF775FEFEF7BBFA01F04BFD1C21E6
:10E870006846FDF7ECFC0521C90301910F2109044D
:10E88000002002910090032269460A73C88108742F
:10E890003C4805903C4806906846FEF791FF0028EA
:10E8A00004D0FF2126A2D231FEF790FB2948374938
:10E8B0001630016036494160FEF712FB012100224B
:10E8C000C9032868FEF75EFD002804D0FF211CA2C2
:10E8D0009131FEF77BFB2078002801D0FEF772FE15
:10E8E000143507CD6B4607C32A49684600F098FBEC
:10E8F000002803D012A22849FEF768FB1548401CE7
:10E9000000F0FCFA002804D023490DA2891CFEF770
:10E910005DFB00F075FB204C0C34FEF7AFFC48DFCC
:10E920000028FAD006A22146FEF750FBF5E70000CA
:10E930004259206C69627261202E0A00AC2C0020C2
:10E940002E2E5C2E2E5C2E2E5C6D61696E2E630069
:10E95000D80F020002280020F50802002102000062
:10E96000A3050000BC2E0020626561636F6E2073FA
:10E9700074613A25642C25642C25642C25640D0AC9
:10E9800000000000F9FA01005DE00100A5D50100DA
:10E9900015D70100A90F02007204000010B5044849
:10E9A0000822416891434160007801F0F9FC10BDF4
:10E9B000AC28002070B5144682880E460546208893
:10E9C000111D4118921C994201D8FE2A01D90C2030
:10E9D00070BD521C32542088FF21401C80B2208020
:10E9E00031542088401C80B220808119288802F090
:10E9F000F3F92188401880B22080AA88002A09D023
:10EA0000A968002908D08019FDF7FAFB2088A98899
:10EA100040182080002070BD072070BDF8B50F465B
:10EA2000017814460546012902D16878002806D0ED
:10EA30002088821C9A422DD8012902D006E00720A6
:10EA4000F8BD69784118891C994223D8181A801E8C
:10EA500086B2684606802188B81C081869467DDFA2
:10EA60000028EDD12878022805D169460988B142ED
:10EA700001D809210AE00821012805D16878B042AF
:10EA800002D86A46108001E0684606806846008821
:10EA9000FE2801D90C20F8BD2288401CB8542088DB
:10EAA000401C80B22080395420886946401C208058
:10EAB0000988401820800020F8BD000031B5054CC1
:10EAC00004E0401E00902046FDF704FB009800285B
:10EAD000F7D138BDE70300008207D30EFF229A402A
:10EAE0008907090E10B5994000280BDA03071B0FA0
:10EAF000083B9C080C4BA400E318DC6994430C43CE
:10EB0000DC6107E08408094BA400E4182368934300
:10EB10000B432360C106C90E0120884004490860E8
:10EB20000449086010BD000000ED00E000E400E0D2
:10EB300080E200E000E100E0F3B581B00F4601980B
:10EB400000F0F4FF012400281E4E019817D0FFF7B3
:10EB50008FF880192030007F8009032802D0012817
:10EB600006D007E01848006901998C40204201D185
:10EB7000022100E00321019800F0C8FAFEBD00F078
:10EB8000E1FF0028FAD00198FFF772F805468100EE
:10EB9000C81D0E4AF93089180A6980B222430A61F9
:10EBA0000B49401800210160002FE7D00198FFF7C2
:10EBB0005FF8800030580028E0D00648AC40446040
:10EBC000FEBD0000A430002000050050006500409C
:10EBD0000060004000630040FEB5044623480E4636
:10EBE0000019202141560027C8171346401C01D0A8
:10EBF000082738E0F27819462046FFF715F8054651
:10EC0000401C2FD0B078002807D01948A10009185F
:10EC1000086802229043086007E0002173782046CC
:10EC200000910A46019100F031FAF078002810D0E6
:10EC30001048AA001018317802690F4B1A4002617F
:10EC4000E206D20C8907890B0A4301690A43026173
:10EC500009E00648327840192030017F92011143C3
:10EC6000017700E004273846FEBD0000A4300020F4
:10EC70000007005000650040FFE0FCFF0349096900
:10EC8000C140C807C00F00D00120704700050050E8
:10EC900070B5124D2879002801D0082070BD0F49A9
:10ECA00000204039421E0B182033401CC0B21A709D
:10ECB0002028F8D300242046FEF7A8FF641CE4B205
:10ECC000082CF8D303210620FFF706FF0120044992
:10ECD000C007486001202871002070BDE43000208A
:10ECE0000063004002480079002800D001207047EE
:10ECF000E4300020F3B50446244881B0807D00282C
:10ED000001D00820FEBD002C00D1214C206800F06D
:10ED1000F3F92078012739461E4E8140B160002169
:10ED2000606800F0E0F91C4DA0696862607D217D9B
:10ED30000843E86603CCE8606961207B083C012851
:10ED40000ED10021A06800F0CEF9E06800F0D4F9FF
:10ED5000207B39468140B160E168A068A9602861E4
:10ED60000A4E0298706021693160002806D00C4A72
:10ED7000217F0A4850600220FFF7AEFE0420286081
:10ED80000020F074B074B7757075FEBDC4310020FA
:10ED900060100200000500500025004080000200C5
:10EDA00000230040F8B5294DEA7C002A01D011204B
:10EDB000F8BDE974E86000202875687D002801D15D
:10EDC00001F04AFA6868224C002805D081202149C8
:10EDD000800048600020F8BDFF212531204600F06A
:10EDE000AFF90546FF210931204600F0A9F9074691
:10EDF000FF214531204600F0A3F90646394631434C
:10EE00002943E9D02846304306D101F0FFF90F48E5
:10EE1000C17C007D8142DFD8FF2145310020605058
:10EE2000FF21253160500949002DC87401D003200D
:10EE3000F8BD002E01D00F20F8BD497D012000292A
:10EE400001D02060C6E76060C4E70000C431002044
:10EE5000002000400023004010B5044C607D0028D5
:10EE600003D101F0F9F90120607510BDC431002013
:10EE7000F8B5204C0026A27C002A01D01120F8BD54
:10EE8000A174A060002020821B4DFF271D37E85190
:10EE90000120A86001F008FD6168002911D024E07C
:10EEA000FF2701372946144800F04AF9002802D10B
:10EEB000208AB842F6D1208AB84203D001F0F4FC8F
:10EEC00000E03D46A07C218A8842E9D8218AC81FFB
:10EED000F9380CD0084F2946384600F031F900289F
:10EEE000F9D00120F8600020A0743046F8BD0F264C
:10EEF000F9E70000C43100200020004038B5054685
:10EF000000206946087025494868C005C00D18D022
:10EF1000103840B2002807DA0207120F083A9208A8
:10EF200092005118C96904E081081D4A89008918B6
:10EF300009688007C00EC1400806840F012C01D16A
:10EF40000AE00424684636DF022814D0002803D0E3
:10EF500014A26221FEF73AF82248816808290CD2EF
:10EF600029704A1C82602048826801238B401A4322
:10EF70008260002502E072B6EEE70425012C0BD07A
:10EF800062B66846007837DF022805D0002803D033
:10EF900004A26E21FEF71AF8284638BD00ED00E005
:10EFA00000E400E02E2E5C2E2E5C2E2E5C2E2E5CBD
:10EFB0002E2E5C2E2E5C2E2E5C636F6D706F6E6538
:10EFC0006E74735C647269766572735F6E72665C90
:10EFD0007764745C6E72665F6472765F7764742EB9
:10EFE00063000000D028002000050140034A800093
:10EFF00001498018016070473546526E0006014095
:10F000000449012048600146034801600349022089
:10F01000087070470003014000000140D028002024
:10F0200070B504460D4841600178002901D00820E0
:10F0300070BD01210170002C00D1094C094D2078D0
:10F04000E86060687D21C003C900FDF77FF8686053
:10F05000217A1020FFF740FD002070BDD02800204D
:10F06000541002000005014030B552000A439900D7
:10F07000039C0A432102049D0A4329040A430249CE
:10F0800080004018026030BD0007005030B55200CB
:10F090000A439900039C0A432102049D0A43290460
:10F0A0000A43024980004018026030BD000700504A
:10F0B00030B552000A439900039C0A432102049D83
:10F0C0000A4329040A43024980004018026030BD07
:10F0D000000700501CB5002100910B460122019150
:10F0E000FFF7C2FF1CBD1CB500220B460092114663
:10F0F0000192FFF7DDFF1CBD1CB5002100910B46FE
:10F10000012201911146FFF7D3FF1CBD8200064882
:10F110001018026803231B049A4302600268090462
:10F120000A4302607047000000070050034940187E
:10F130000068012800D000207047000000600040F7
:10F140004058002800D00120704703221202801886
:10F150004068084000D00120704700007CB50C4694
:10F16000164601461D466A460A4800F019FD002869
:10F1700003D009A26621FDF729FF2B4632466946D6
:10F18000204600F075FD002803D003A26821FDF79A
:10F190001DFF7CBD242800202E2E5C2E2E5C2E2EE2
:10F1A0005C666C6173685F6F70742E6300000000B2
:10F1B00070B5012921D0022916D0032928D00429AD
:10F1C00011D14368154800210C244C43241865686C
:10F1D000AB4218D1A468002C15D00C235943081851
:10F1E00081681046884770BD002A04D00CA1002019
:10F1F000FDF7DAF970BD15A1F9E7002A01D01CA1CD
:10F20000F5E726A1F3E7491CC9B20329DCD370BD99
:10F21000002A01D02AA1EAE734A1E8E7282F00203C
:10F220007073746F72616765204C4F414420455282
:10F23000524F522063616C6C6261636B2072656334
:10F240006569766564200D0A000000007073746FB4
:10F2500072616765204C4F41442063616C6C626150
:10F26000636B207265636569766564200D0A000032
:10F270007073746F726167652053544F5245204517
:10F2800052524F522063616C6C6261636B207265F5
:10F29000636569766564200D0A0000007073746F01
:10F2A000726167652053544F52452063616C6C62F4
:10F2B00061636B207265636569766564200D0A0081
:10F2C0007073746F7261676520434C4541522045ED
:10F2D00052524F522063616C6C6261636B207265A5
:10F2E000636569766564200D0A0000007073746FB1
:10F2F0007261676520434C4541522063616C6C62CA
:10F3000061636B207265636569766564200D0A0030
:10F310001CB50B49002008708021684681800321BC
:10F32000C180084806490090091D684600F0F4FCB9
:10F33000002803D004A25121FDF748FE1CBD0000A7
:10F3400020280020B1F101002E2E5C2E2E5C2E2EE6
:10F350005C666C6173685F6F70742E630000000000
:10F36000FFB5154C0C222178144D51434A1981B038
:10F3700001461F46201D0A9E00F012FC002803D003
:10F380000FA27521FDF722FE20780C214843401979
:10F390003B46039A029900F043FD002803D008A2DF
:10F3A0007721FDF713FE20780C2141434919401CB9
:10F3B0008E60207005B0F0BD20280020282F00208E
:10F3C0002E2E5C2E2E5C2E2E5C666C6173685F6F39
:10F3D00070742E630000000000B58DB0002805D0C9
:10F3E00016A10020FDF7E0F80DB000BD1EA1002021
:10F3F000FDF7DAF80023302269461846FFF7AEFE23
:10F400006846027822A10020FDF7CEF868464278CF
:10F4100027A10020FDF7C8F86846827824A10020C3
:10F42000FDF7C2F86846C27823A10020FDF7BCF8BA
:10F430000A20FFF743FBFDF751F800007073746F6B
:10F440007261676520555044415445204552524FE2
:10F45000522063616C6C6261636B207265636569E5
:10F46000766564200D0A00007073746F72616765C1
:10F47000205550444154452063616C6C6261636B5C
:10F48000207265636569766564200D0A00000000DE
:10F490002020202077616974207570646174652074
:10F4A0006C6F61645F646174613A2025303278006A
:10F4B000202530327800000020253032780A000004
:10F4C00008B5002804D016A10020FDF76DF808BD8E
:10F4D0001DA10020FDF768F80023042269460220E0
:10F4E000FFF73CFE042269462248FCF789FE684685
:10F4F000027821A10020FDF757F86846427826A13E
:10F500000020FDF751F86846827823A10020FDF71E
:10F510004BF86846C27822A10020FDF745F808BDE7
:10F520007073746F72616765205550444154452073
:10F53000626561636F6E207363616E204552524F46
:10F5400052200D0A000000007073746F72616765CD
:10F5500020626561636F6E207363616E2063616C0E
:10F560006C6261636B207265636569766564200D0A
:10F570000A0000000C2800202020202077616974F8
:10F5800020757064617465206C6F61645F64617480
:10F59000613A202530327800202530327800000092
:10F5A00020253032780A000030B599B0002805D007
:10F5B00038A10020FCF7F8FF19B030BD002440A1AD
:10F5C0002046FCF7F1FF002330220CA90120FFF7B1
:10F5D000C5FD45A10020FCF7E7FF0CAD2A5D4CA15D
:10F5E0000020FCF7E1FF641CE4B22D2CF6D330229E
:10F5F0000CA96846FCF704FE47A10020FCF7D4FFE5
:10F60000684602784FA10020FCF7CEFF684642789A
:10F6100052A10020FCF7C8FF6846827855A100205F
:10F62000FCF7C2FF6846027958A10020FCF7BCFF36
:10F630005CA10020FCF7B8FF00246D462819427930
:10F640005DA10020FCF7B0FF641CE4B2052CF5D3EB
:10F65000684642895BA10020FCF7A6FF6846027B52
:10F660005FA10020FCF7A0FF63A10020FCF79CFF36
:10F6700000242819427B26A10020FCF795FF641C7A
:10F68000E4B2202CF5D324A10020FCF78DFFFCF779
:10F6900025FF00007073746F7261676520555044D8
:10F6A000415445204552524F522063616C6C626157
:10F6B000636B207265636569766564200D0A0000DE
:10F6C0007073746F726167652055504441544520D2
:10F6D00063616C6C6261636B2072656365697665FA
:10F6E00064200D0A000000003D3D3D3D3D3D3D775D
:10F6F00061697420757064617465206C6F61645F0A
:10F70000646174613D3D3D3D3D3D3D0D0A0000009D
:10F7100025303278000000000D0A203D3D3D3D3D82
:10F720003D3D3D3D3D3D3D726164696F5F7061727D
:10F730006D3D3D3D3D3D3D3D3D3D3D3D3D3D0D0A2C
:10F74000000000002020202076657273696F6E5FD4
:10F7500069643A20253032780D0A000020202020EC
:10F7600072665F6368616E6E656C3A202530326444
:10F770000D0A0000202020206461746172617465AC
:10F780003A20253032780D0A000000002020202089
:10F7900061646465725F776974683A2025303278F5
:10F7A0000D0A00002020202074785F616464726577
:10F7B00073735B355D000000203078253032782C83
:10F7C00000000000200D0A20202020736C65657069
:10F7D0005F74696D65723A2025640D0A00000000AF
:10F7E00020202020706C6F796C6F61645F6C656E97
:10F7F0003A2025640D0A000020202020706C6F79CB
:10F800006C6F61645F6275665B33325D000000009F
:10F81000F0B50188041D764D89B0102910D0192942
:10F8200073D01B290FD01D2908D12088A11C75DF9A
:10F83000002803D06FA27349FDF7C8FB09B0F0BDE3
:10F840008088A880FAE70020059005A90623069085
:10F850001A1A121992780A54401CC0B20628F7D31B
:10F8600020460B300090A07AFF27C60868468680A5
:10F8700007A884460020009A29E013185B78115CE1
:10F88000BB4222D11018801C07906046491E81801F
:10F89000079880780228D1D16846008C0328CDD9FA
:10F8A0006846027D417D0923807DE35601AE0FC687
:10F8B0006846C07D00906846037E427E52A10020CB
:10F8C000FCF772FE00275E4E0FE04018401C864297
:10F8D000D3D8B3E7F800C01B8119062205A8FCF7AE
:10F8E000C8FC002804D07F1CFFB228788742F1D3DF
:10F8F0002878874231D1142F2FD20921615600294F
:10F9000000DA4942CFB200210AE060E0CA00521A90
:10F910009519AA79BA4210D8002A0ED0491CC9B24A
:10F920008142F3D9324D3A46287846A1401C2870CE
:10F930000020FCF739FE00271BE0401AC200121A13
:10F94000C800401A8119E81DFCF75AFC2846062217
:10F9500005A9FCF755FCAF71E4E73EA13EE0F800D5
:10F96000C01B8019827940A10020FCF71DFE7F1C7E
:10F97000FFB228788742F2D330A10020FCF714FEB2
:10F9800007980078592802D04C2806D009E007983B
:10F990004078002805D136A104E007984078002877
:10F9A00005D037A10020FCF7FFFD002509E038A1B4
:10F9B000F8E76019C27A3AA10020FCF7F5FD6D1C4A
:10F9C000EDB2A07AC008A842F3D837A106E0A0782B
:10F9D000022807D0032800D030E734A10020FCF72C
:10F9E000E3FD2BE72A783BA10020FCF7DDFD25E7AE
:10F9F000002800202E2E5C2E2E5C2E2E5C6D616960
:10FA00006E2E6300F60300007363616E20676574F9
:10FA1000207265706F7274253032783A25303278F2
:10FA20003A253032783A253032783A253032783AF1
:10FA30002530327820727373693D25640D0A000009
:10FA4000582A00207273736920746573743A2564B0
:10FA50000D0A0000696E76616C69642062656163FD
:10FA60006F6E0D0A00000000525353493A2564009E
:10FA70006E6F7264696320626561636F6E0D0A0068
:10FA80006F7468657220626561636F6E0D0A0000B5
:10FA90006170706C6520626561636F6E0D0A0000B5
:10FAA00025303278200000000D0A20005B415050C4
:10FAB0004C5D3A20436F6E6E656374696F6E2052C1
:10FAC0006571756573742074696D6564206F7574F4
:10FAD0002E0D0A005B4150504C5D3A205363616E1D
:10FAE0002074696D6564206F75742E20636E743D9B
:10FAF00025640D0A0000000010B5007800280AD126
:10FB000005483B21808876DF002804D0FF2103A22E
:10FB1000B031FDF75BFA10BD002800202E2E5C2EC0
:10FB20002E5C2E2E5C6D61696E2E630004490818F0
:10FB300020214156042901DB012070470020704735
:10FB4000A43000200449081820214156042901D27C
:10FB50000120704700207047A430002070B50D00D0
:10FB6000044604D10D4A4B210020FDF72FFA002C4A
:10FB700004D10A4A4C210020FDF728FA2878207089
:10FB800069886170090AA170A988E170090A217168
:10FB9000E8886071000AA07170BD0000B810020012
:10FBA00030B5124B1B795B0701D4082030BD00280B
:10FBB00005D0002A03D00468002C10D101E00E20EB
:10FBC00030BD0B4B1D68002D09D045681889414395
:10FBD00069185D89454358682818884201D807206C
:10FBE00030BD14600020516030BD0000AC28002002
:10FBF000B831002010B507484469601C06D000F0F9
:10FC00000BF801462046FCF7A1FA10BD01200007C1
:10FC1000406910BD0010001001200007006980B28B
:10FC20007047000070B500240F48254604704470EA
:10FC30002846FEF727F96D1C0A2DF9D30B4D6C8071
:10FC4000FFF7D8FF861EFFF7E7FF46430648AE6082
:10FC5000CC306C610460048144812C70AC61042060
:10FC6000EC616860002070BDEC300020AC28002002
:10FC7000FFB5274881B000791F4616460D4640075C
:10FC800002D4082005B0F0BD002D06D00198002850
:10FC900003D02868002815D101E00E20F2E71D4CA2
:10FCA000206800280ED06189208962684143891844
:10FCB0006A68914206D9002E04D0B04202D3F119ED
:10FCC000814201D90720DDE70198FEF73DFC0028BD
:10FCD0001BD03846FEF738FC002816D06868FEF7BF
:10FCE00033FC002811D068683246C1190198FCF72E
:10FCF00087FA009628680C214843245800220221E4
:10FD00002846019BA0470020BCE71020BAE700006E
:10FD1000AC280020B8310020F8B52C4D04462879D5
:10FD20000E46400701D40820F8BD002C20D0002E3C
:10FD30001ED0206800281BD0FFF76EFF0146A08868
:10FD4000814213D3102811D3E08800280ED0FFF78A
:10FD500051FF471EFFF760FF4743E288A188A8686C
:10FD60004A431218974201D3890703D00720F8BDF0
:10FD70000E20F8BD6988012926D031600C22144B71
:10FD800051437060CA18506020685850A088108194
:10FD9000E0885081FFF740FF0646FFF73DFFA1884E
:10FDA000E288401E514340183146FCF7E5F904460D
:10FDB000FFF732FF0146A86861430818A860688809
:10FDC000401C68800020F8BD0420F8BDAC2800204D
:10FDD000B831002010B5114902460878002811D02A
:10FDE00004280FD0022A16D0032A0BD10A79120751
:10FDF00011D48A69521C8A61032A08D0022802D0D1
:10FE000000F0CEFA10BD487800F004FC10BD0D20C3
:10FE1000FDF75EF910BDFEF717FA10BDAC28002003
:10FE2000F8B5044620481E46007915460F4640079F
:10FE300001D40820F8BD002F05D0002C03D0206885
:10FE4000002815D101E00E20F8BD184801680029EE
:10FE50000ED04289018940684A4310186268904276
:10FE600006D9002D04D0A94202D3A819884201D98D
:10FE70000720F8BD3846FEF767FB002811D0304652
:10FE8000FEF762FB00280CD06068FEF75DFB0028DF
:10FE900007D02B463A46214604200096FEF702F88A
:10FEA000F8BD1020F8BD0000AC280020B8310020BB
:10FEB000FEB543A10020FCF777FB474D0127E8780A
:10FEC0002D280FD045A10020FCF76EFB6846077176
:10FED0006878012201A9FCF755FC6420FEF7EEFDCD
:10FEE000FCF7FCFA2C1D43A10020FCF75DFB2278F7
:10FEF0004DA10020FCF758FB627851A10020FCF7CF
:10FF000053FBA27854A10020FCF74EFB227958A1A4
:10FF10000020FCF749FB5CA10020FCF745FB002614
:10FF2000A01942795DA10020FCF73EFB761CF6B2D9
:10FF3000052EF5D3E07AA17A02020A435AA10020E5
:10FF4000FCF732FB227B5FA10020FCF72DFB63A1B5
:10FF50000020FCF729FB0026A019427B65A10020A8
:10FF6000FCF722FB761CF6B2202EF5D363A100200D
:10FF7000FCF71AFB20780028A4D1A0780228A1D889
:10FF8000E07802289ED82079C01E03289AD2207BD0
:10FF9000202897D865A10020FCF706FB00206946C1
:10FFA00008716948009000233022291D0120FFF7C5
:10FFB000D7F96878012201A9FCF7E4FBFEBD000037
:10FFC000726164696F5F7061726D5F636865636BB6
:10FFD00028290D0A000000004C2F00205B455252DA
:10FFE0004F525D205041524D5F494E56414C49445D
:10FFF0000D0A00000D0A203D3D3D3D3D3D3D3D3D8E
:020000040002F8
:100000003D3D3D726164696F5F7061726D205B732D
:10001000746172745D3D3D3D3D3D3D3D3D3D3D3D29
:100020003D3D0D0A000000002020202076657273FF
:10003000696F6E5F69643A20253032780D0A0000DE
:100040002020202072665F6368616E6E656C3A20C6
:10005000253032640D0A0000202020206461746184
:10006000726174653A20253032780D0A0000000074
:100070002020202061646465725F776974683A208B
:10008000253032780D0A00002020202074785F612E
:100090006464726573735B355D0000002030782501
:1000A0003032782C00000000200D0A202020207320
:1000B0006C6565705F74696D65723A2025640D0A20
:1000C0000000000020202020706C6F796C6F61644C
:1000D0005F6C656E3A2025640D0A00002020202008
:1000E000706C6F796C6F61645F6275665B33325DF3
:1000F0000000000025303278000000000D0A203D8D
:100100003D3D3D3D3D3D3D3D3D3D3D726164696F41
:100110005F7061726D205B656E645D3D3D3D3D3D90
:100120003D3D3D3D3D3D3D3D0D0A00005B4552528C
:100130004F525D205354415455535F5355434345EB
:1001400053530D0A00000000A9F5010070B5012409
:100150000B49600408600B49401088600949403928
:100160008860094D6C602F20FBF7C4FFAC60074D21
:1001700000242F202C61FBF7BDFFEC7070BD000048
:1001800080E100E04013014000100140F028002011
:100190001CB5044602460EA10020FCF705FA2246D3
:1001A00004211248FCF74CF81048C278817800917D
:1001B0000192437802780EA10020FCF7F5F912486D
:1001C00000900023042209490220FFF7C9F81CBD52
:1001D0007265616479207361766520626561636F21
:1001E0006E207374613A25640D0A000030280020E7
:1001F000544553542076616C203A25642C25642C98
:1002000025642C2564000000C1F40100FF2107488B
:10021000093100224250064881690648037DC268C0
:10022000D154017D491C0175704700000020004039
:1002300000250040C43100201FB5012269460A7024
:1002400008720448C16801910021C17406C868465B
:1002500090471FBDC4310020FF22054825320021F0
:100260008150FF2209328150012101607047000056
:1002700000200040FFB50746806A81B01446002880
:100280003DD0002538462030009033E00C20B96A7C
:1002900068430E18B088801CFE2802D90C2005B0D7
:1002A000F0BD22880299401C885420881622401CE8
:1002B00080B2208002990A542088401C80B220809D
:1002C00002994118308800F087FD2188401880B2DB
:1002D0002080B288002A0AD0B16800290FD0029B82
:1002E000C018FBF78DFF2088B188401820806D1C56
:1002F0000098EDB2007BA842C8D80020CFE70720C5
:10030000CDE7000000B591B040216846FBF79FFFA4
:1003100014A16846FDF7F6FB14A102A8FDF7F2FB55
:1003200014A106A8FDF7EEFB15A108A8FDF7EAFB4E
:1003300015A10AA8FDF7E6FB0120014608A8103127
:1003400001770020014608A841776846FDF7DAFAF0
:10035000002804D0FF21114A8431FCF737FE11B088
:1003600000BD000072756974656C0000383630326B
:100370004D310000383630324D315F4131330000AD
:1003800053444B5F410000004131337631362E310A
:100390003032362E303234350000000040E90100A2
:1003A00010B50F490028087009D0012811D0022883
:1003B00012D0032802D14869FDF786FF10BD002046
:1003C0008861C861074840780028F7D0FDF73EFDF6
:1003D00010BD00F0D7F810BD00F038F810BD0000D7
:1003E000AC280020EC30002010B508461146C0466D
:1003F000C04610BD002803D00249C86000207047E5
:100400000E2070473829002070B5002901D08C07D4
:1004100001D0072070BD064C0125A160628005490E
:10042000636010DF0028F5D1257016202EDF70BD27
:1004300038290020E9030200002803D0024908619E
:10044000002070470E20704738290020F8B5164C60
:1004500014226068400840006060144801785143ED
:100460000E183769FFF7D8FB01463846FBF76EFEDA
:1004700005466061FFF7D0FB0146F0887F1EC0197A
:10048000FBF764FE02228542606801D1104300E060
:1004900090436060E1681040084303D0002000F002
:1004A000B9F8F8BD0220FAE7AC280020EC300020B3
:1004B00010B502484069FDF707FF10BDAC280020C9
:1004C00010B5FFF797FB441EFFF7A6FB4443FFF769
:1004D000A3FB04494A69521E5043CA682146FDF7EE
:1004E000F8FE10BDAC280020F8B5104814220178A1
:1004F00051430C182569FFF78FFB0146E0882289DC
:1005000080184019FBF722FE0F46FFF773FB461ECB
:10051000FFF782FB4643E0882289F1198018044ADC
:1005200040191269FDF7D5FEF8BD0000EC3000203F
:10053000AC28002070B5FFF76FFB0546FFF75AFBAC
:10054000441EFFF769FB60432946FBF7FFFDFDF7FB
:10055000BBFE70BD70B5FFF75FFB8608FFF75CFB65
:100560000749496948430446FFF744FB451EFFF726
:1005700053FB684332462146FDF7ABFE70BD0000D9
:10058000AC28002070B514481422017851430C188F
:10059000241DFFF741FB6188104E884211D2FFF7FE
:1005A0003BFB61880D1AFFF737FB8208A188E068E2
:1005B0004018216940194919FDF78BFEFFF72CFB04
:1005C00007E0A288E06880188A082169FDF781FEAB
:1005D0006088F06170BD0000EC300020AC28002085
:1005E00010B505480079000703D4012000F012F887
:1005F00010BD00F003F810BDAC28002010B5044871
:100600000822416891434160407800F003F810BD32
:10061000AC28002002494870024980000858004771
:10062000AC2800202C10020010B50446FFF7D2FBC6
:100630002046FCF75DFD10BD70B50C00054604D1E9
:10064000134A33210020FCF7C1FC002D04D1104ACD
:1006500034210020FCF7BAFC207828702088FF2184
:1006600009020840000A6870206809020840000C6E
:10067000A8702068000EE87020792871207A6871CF
:100680002089000AA871A068000CE87170BD000004
:10069000B810020010B505480079000702D4FDF734
:1006A000C3FB10BDFFF7AAFF10BD0000AC2800205F
:1006B000FEB51F4C00252769E06802906846FDF7EB
:1006C0007FFD0190FDF770FF06460198002822D0BB
:1006D00000230098E16817E00E680A46864202D9B6
:1006E000301A086012E0801BF31800261660D668E6
:1006F000D169B446002E07D0FE183602360A56607D
:1007000066469660D56115460029E5D12846E16028
:10071000FDF7A8FF06E02846FDF7A4FF002801D159
:10072000002E02D00298FDF701FC00202071FEBDD2
:10073000F0280020012002490005086070470000F1
:1007400000E200E010B50E4BD968002906D002681F
:100750000C68A24204D8A21A0A60C161D86010BD18
:100760000B4604E00B46C969121B002904D00C6833
:100770009442F7D3A41A0C600260C161D86110BD25
:10078000F0280020F8B51E4DEC68002C37D01D482D
:10079000002740682969401A0602360A2068B042DC
:1007A0001BD8361AC7192246107CE469002812D0DB
:1007B000002010746B69002B0AD09169506998472A
:1007C000002808D0FF2110A26031FCF7FFFB02E0F7
:1007D000516990698847002CE0D16978A8788142F6
:1007E00006D1401CC0B2A870022801D10020A87018
:1007F00003490006800D18310F50FFF79BFFF8BD2D
:10080000F0280020001501402E2E5C2E2E5C2E2E8E
:100810005C2E2E5C2E2E5C2E2E5C2E2E5C636F6D5D
:10082000706F6E656E74735C6C696272617269651B
:10083000735C74696D65725C6170705F74696D651D
:10084000722E630010B50023124A05211846FCF7EA
:1008500051FD002804D0FF210F4A2D31FCF7B6FBD3
:100860000E4A01210E48FCF72FFD002804D0FF217D
:10087000094A3331FCF7AAFB09480A4A0121001D45
:10088000FCF722FD002804D0FF21034A3831FCF791
:100890009DFB10BDE42A002040E90100C90F0200C1
:1008A000D80F020065D60100FF2107481D31002244
:1008B00042500648028A8168895C028A521C028280
:1008C0000348C1617047000000200040C43100208F
:1008D000002500401FB500216A46117010720448BF
:1008E00082680192817406C8684690471FBD000067
:1008F000C431002008B50178002908D001290ED0A4
:1009000002290BD1FF21406808A2FD310BE06846A7
:10091000FCF7A0FD094841686846884708BD0121E9
:10092000406802A24902FCF751FB08BD2E2E5C2E46
:100930002E5C2E2E5C6D61696E2E63003C280020BB
:100940007CB50178254D01290AD002292FD0002934
:100950002CD129462248FCF75BFB00282ED031E041
:10096000406801781E481038FCF76FFB1C4C103CA7
:10097000002805D001216A4611700190684608E000
:10098000A068E168081A012805D1002069460870AE
:10099000684669688847A068E168081AA1888842A3
:1009A00004D80E480121801CFEF7FCF97CBD022111
:1009B0006A461170C068019068460CE00121074842
:1009C000FEF756FA06488168C0688842EED10320D7
:1009D000694608706846696888477CBD2029002000
:1009E0000C320020F0B5794C8FB02078062858D111
:1009F00000256846057076A12846FBF7D5FD62788C
:100A00007DA10020FBF7D0FDA27880A10020FBF79C
:100A1000CBFDE27883A10020FBF7C6FD87A1002073
:100A2000FBF7C2FD002607E0A019027987A100208C
:100A3000FBF7BAFD761CF6B2E078B042F4D885A197
:100A40000020FBF7B1FDE278211D0020FBF77DFCC3
:100A50006B4618700122E11C1878FBF776FC6B4698
:100A600018700122611C1878FBF76FFC6B46187038
:100A7000A078197888420AD080A10020FBF794FD65
:100A8000022008A90875607801220DA996E0667811
:100A90003300FCF768F80604080B186C7C8DFFF730
:100AA00007FA0FB0F0BDFCF7D5FFFAE76846057509
:100AB000112278A11530FBF7A3FB122205A93046BD
:100AC000FBF760FEEDE778480570684605757648E7
:100AD000764D08308079A979401A00D54042C7B2D6
:100AE0007148062271490830FBF7C3FB002801D189
:100AF0000A2F11D96E480078C100081AC6B205A89D
:100B000032466A490130FBF77BFB67480722674999
:100B10000830FBF775FB00E00026A979624D3246EC
:100B20000835A87900900191614862A103780020FE
:100B3000FBF73AFD6B792A79E978A878019002A849
:100B40000EC0687800902B783A4662A10020FBF72F
:100B50002BFD761CF2B2607805A9FBF713FE6A48FC
:100B6000007800289DD13C20FCF72CFD99E72079E6
:100B7000002896D1684605750020FFF709FB6078CC
:100B8000012205A9FBF7FEFDFCF796FD89E7684603
:100B90000575454807210830FBF759FB2079FFF719
:100BA000F7FA6078012205A9FBF7ECFD2079DBE775
:100BB000032008A9087501220DA93046FBF7E2FDC4
:100BC0006420FDF77BFFFBF789FC00004C2F002021
:100BD0003D3D3D3D3D75617274207265636569768A
:100BE00065207072696E742073746172743D3D3D4E
:100BF0003D3D0D0A000000007061636B5F636D6432
:100C0000203A25303278200D0A0000007061636BB5
:100C10005F636865636B73756D203A2530327820A9
:100C20000D0A00007061636B5F6C656E5F746F74BA
:100C3000616C203A25303278200D0A007061636BB8
:100C40005F446174526576203A00000025303278A6
:100C5000000000000D0A3D3D3D3D3D6E7561727422
:100C60002072656365697665207072696E742065AF
:100C70006E643D3D3D3D3D0D0A0000005B45525216
:100C80004F525D204352435F4641494C5552450DFA
:100C90000A000000004131337631362E31303236D1
:100CA0002E303234350000002C280020582A002035
:100CB00000280020626561636F6E206461746120AA
:100CC0006C656E3A25642C25642C25642C25640DF6
:100CD0000A000000626561636F6E206461746120C8
:100CE00076616C3D25642C253032783A2530327897
:100CF0003A253032783A253032783A253032783A0F
:100D0000253032780D0A00000C28002070B52549E6
:100D100001260D78244A06242B00FBF724FF060445
:100D200009170E2B12080078AA2800D10E7070BD8A
:100D300000785528FBD1032006E000784870052094
:100D400002E0007888700220087070BD04230B70E8
:100D500000780023C87053700028F6D10C70002171
:100D6000124A0846FCF708FA0028EED0FF2110A22C
:100D7000EA3114E0037850780D18401C2B71C0B292
:100D80005070CA788242E0D10C700021074A0846B0
:100D9000FCF7F2F90028D8D0FF2105A2F531FCF7C5
:100DA00015F970BD4C2F00202C280020CD0D02001D
:100DB0002E2E5C2E2E5C2E2E5C757365725F647217
:100DC000765F636F6E736F6C652E63000148C06859
:100DD000004700003C2800200870000A48700220EC
:100DE00070470870000A48700220704738B51549EE
:100DF000154A488890420FD04A78144C521CD2B2FF
:100E00004A70237B934208D3091D75DF002803D065
:100E1000A169002900D0884738BD00254D70217C8C
:100E2000002907D03B2176DF002803D0A1690029E3
:100E300000D0884761690029EED068460570884770
:100E400038BD00004C280020FFFF00008830002043
:100E500012494868C005C00D19D0103840B20028AA
:100E600007DA0207120F083A920892005118C9696E
:100E700004E081080A4A8900891809688007C00EC1
:100E8000C1400806800F012803D0032803D00220A8
:100E900070470020704701207047000000ED00E01F
:100EA00000E400E042788378521CD2B2934200D131
:100EB00000220378934201D1002070470A704168F4
:100EC00040781822504308187047FFB583B0164683
:100ED0000C9D0D9C1F46022200950194039800F082
:100EE0000CF8002807D13B461022314600950194AA
:100EF000039800F002F807B0F0BDFFB583B00746D5
:100F000000200C9C8646268805463AE07868A900B1
:100F100042181188684681805188C1800022694644
:100F200001A865DF002839D168460178059881421B
:100F300026D17046002801D0002200E0022220883D
:100F4000891842180D998A4227D8714600290AD17A
:100F5000401C80B22080069A049911542088401CBD
:100F6000208001208646218806980A18694601A833
:100F700065DF002812D16946208809784018208052
:100F80006D1C3888A842C1DC704600280AD0208831
:100F9000801B401E80B2FF2802D90C2007B0F0BD94
:100FA000069988550020F9E710B502A10020FBF74B
:100FB000FBFA10BD7764745F6576656E745F686177
:100FC0006E646C65720A000010B50248C078FEF7C6
:100FD0000DF810BD00280020182A0020382A002013
:100FE0000302FFFF00000000005027000100000086
:100FF000D00700000100000000120202043412BBFE
:10100000AAFF0080080200BC61110033FF0000004D
:1010100000000000000000000000000000000000D0
:1010200000000000000000006830002035050200CC
:1010300055050200B1040200E9040200C1040200E7
:10104000E105020039E10100E5E00100950602003A
:10105000A5E3010001000000D0070000010000002E
:10106000090000000B0000000A000000080000005A
:10107000000000000000000000509D000300000080
:10108000DC31002003000000090000000B0000001C
:101090000A0000000800000000000000000000003E
:1010A00000509D00030000003031323334353637B4
:1010B00038394142434445462E2E5C2E2E5C2E2E5E
:1010C0005C2E2E5C2E2E5C2E2E5C2E2E5C636F6DA5
:1010D000706F6E656E74735C626C655C626C655F8C
:1010E00073657276696365735C626C655F6469736E
:1010F0005C626C655F6469732E6300002E2E5C2E4B
:101100002E5C2E2E5C2E2E5C2E2E5C2E2E5C2E2E19
:101110005C636F6D706F6E656E74735C6C69627228
:1011200061726965735C7363686564756C65725C34
:101130006170705F7363686564756C65722E6300BF
:101140002E2E5C2E2E5C2E2E5C2E2E5C2E2E5C2ED9
:101150002E5C2E2E5C636F6D706F6E656E74735CAB
:10116000736F66746465766963655C636F6D6D6FDC
:101170006E5C736F66746465766963655F68616EE3
:10118000646C65725C736F66746465766963655FD1
:1011900068616E646C65722E630000005465726D48
:1011A000696E616C00000000C81102000028002078
:1011B000CC010000F4C2010010120200CC29002072
:1011C0009C14000090CB01004123FFFF4511223306
:1011D00044320B04258DDB01144BC301140D0D02A9
:1011E0001485C70104FFE5090261600B53454747B9
:1011F0004552205254545A0204149C1102131C32BA
:10120000122002260439301236032820101324F449
:040000050001C0C175
:00000001FF
